{
  "_format": "hh-sol-artifact-1",
  "contractName": "Vault",
  "sourceName": "contracts/Vault.sol",
  "abi": [
    {
      "inputs": [],
      "stateMutability": "nonpayable",
      "type": "constructor"
    },
    {
      "inputs": [
        {
          "internalType": "address",
          "name": "target",
          "type": "address"
        }
      ],
      "name": "AddressEmptyCode",
      "type": "error"
    },
    {
      "inputs": [
        {
          "internalType": "address",
          "name": "account",
          "type": "address"
        }
      ],
      "name": "AddressInsufficientBalance",
      "type": "error"
    },
    {
      "inputs": [],
      "name": "FailedInnerCall",
      "type": "error"
    },
    {
      "inputs": [
        {
          "internalType": "address",
          "name": "owner",
          "type": "address"
        }
      ],
      "name": "OwnableInvalidOwner",
      "type": "error"
    },
    {
      "inputs": [
        {
          "internalType": "address",
          "name": "account",
          "type": "address"
        }
      ],
      "name": "OwnableUnauthorizedAccount",
      "type": "error"
    },
    {
      "inputs": [
        {
          "internalType": "address",
          "name": "token",
          "type": "address"
        }
      ],
      "name": "SafeERC20FailedOperation",
      "type": "error"
    },
    {
      "anonymous": false,
      "inputs": [
        {
          "indexed": false,
          "internalType": "address",
          "name": "user",
          "type": "address"
        },
        {
          "indexed": false,
          "internalType": "uint256",
          "name": "amount",
          "type": "uint256"
        }
      ],
      "name": "Deposit",
      "type": "event"
    },
    {
      "anonymous": false,
      "inputs": [
        {
          "indexed": true,
          "internalType": "address",
          "name": "previousOwner",
          "type": "address"
        },
        {
          "indexed": true,
          "internalType": "address",
          "name": "newOwner",
          "type": "address"
        }
      ],
      "name": "OwnershipTransferred",
      "type": "event"
    },
    {
      "inputs": [],
      "name": "BLAST",
      "outputs": [
        {
          "internalType": "contract IBlast",
          "name": "",
          "type": "address"
        }
      ],
      "stateMutability": "view",
      "type": "function"
    },
    {
      "inputs": [],
      "name": "USDB",
      "outputs": [
        {
          "internalType": "contract IERC20Rebasing",
          "name": "",
          "type": "address"
        }
      ],
      "stateMutability": "view",
      "type": "function"
    },
    {
      "inputs": [
        {
          "internalType": "address",
          "name": "recipient",
          "type": "address"
        }
      ],
      "name": "claimYield",
      "outputs": [
        {
          "internalType": "uint256",
          "name": "claimAmount",
          "type": "uint256"
        }
      ],
      "stateMutability": "nonpayable",
      "type": "function"
    },
    {
      "inputs": [
        {
          "internalType": "address",
          "name": "user",
          "type": "address"
        },
        {
          "internalType": "uint256",
          "name": "amount",
          "type": "uint256"
        }
      ],
      "name": "deposit",
      "outputs": [],
      "stateMutability": "nonpayable",
      "type": "function"
    },
    {
      "inputs": [],
      "name": "getClaimableYield",
      "outputs": [
        {
          "internalType": "uint256",
          "name": "",
          "type": "uint256"
        }
      ],
      "stateMutability": "view",
      "type": "function"
    },
    {
      "inputs": [],
      "name": "owner",
      "outputs": [
        {
          "internalType": "address",
          "name": "",
          "type": "address"
        }
      ],
      "stateMutability": "view",
      "type": "function"
    },
    {
      "inputs": [],
      "name": "renounceOwnership",
      "outputs": [],
      "stateMutability": "nonpayable",
      "type": "function"
    },
    {
      "inputs": [
        {
          "internalType": "address",
          "name": "newOwner",
          "type": "address"
        }
      ],
      "name": "transferOwnership",
      "outputs": [],
      "stateMutability": "nonpayable",
      "type": "function"
    },
    {
      "inputs": [],
      "name": "usdb",
      "outputs": [
        {
          "internalType": "contract IERC20",
          "name": "",
          "type": "address"
        }
      ],
      "stateMutability": "view",
      "type": "function"
    },
    {
      "inputs": [
        {
          "internalType": "address",
          "name": "to",
          "type": "address"
        },
        {
          "internalType": "uint256",
          "name": "amount",
          "type": "uint256"
        }
      ],
      "name": "withdraw",
      "outputs": [],
      "stateMutability": "nonpayable",
      "type": "function"
    }
  ],
  "bytecode": "0x608060405234801561001057600080fd5b50338061003757604051631e4fbdf760e01b81526000600482015260240160405180910390fd5b61004081610129565b50604051631a33757d60e01b815273420000000000000000000000000000000000002290631a33757d9061007990600290600401610179565b6020604051808303816000875af1158015610098573d6000803e3d6000fd5b505050506040513d601f19601f820116820180604052508101906100bc91906101a1565b507343000000000000000000000000000000000000026001600160a01b0316634e606c476040518163ffffffff1660e01b8152600401600060405180830381600087803b15801561010c57600080fd5b505af1158015610120573d6000803e3d6000fd5b505050506101ba565b600080546001600160a01b038381166001600160a01b0319831681178455604051919092169283917f8be0079c531659141344cd1fd0a4f28419497f9722a3daafe3b4186f6b6457e09190a35050565b602081016003831061019b57634e487b7160e01b600052602160045260246000fd5b91905290565b6000602082840312156101b357600080fd5b5051919050565b61078f806101c96000396000f3fe608060405234801561001057600080fd5b506004361061009d5760003560e01c80638e3a1cb8116100665780638e3a1cb8146100fb57806397d7577614610111578063999927df1461011f578063f2fde38b14610132578063f3fef3a31461014557600080fd5b80626f7d00146100a257806331a0edec146100a257806347e7ef24146100cd578063715018a6146100e25780638da5cb5b146100ea575b600080fd5b6100b06022602160991b0181565b6040516001600160a01b0390911681526020015b60405180910390f35b6100e06100db3660046106aa565b610158565b005b6100e06101b1565b6000546001600160a01b03166100b0565b6101036101c5565b6040519081526020016100c4565b6100b06002604360981b0181565b61010361012d3660046106d4565b610233565b6100e06101403660046106d4565b610378565b6100e06101533660046106aa565b6103b6565b61016b6022602160991b013330846103d4565b604080516001600160a01b0384168152602081018390527fe1fffcc4923d04b559f4d29a8bfc6cda04eb5b0d3c460751c2402c5c5cc9109c910160405180910390a15050565b6101b9610441565b6101c3600061046e565b565b60405163e12f3a6160e01b81523060048201526000906022602160991b019063e12f3a6190602401602060405180830381865afa15801561020a573d6000803e3d6000fd5b505050506040513d601f19601f8201168201806040525081019061022e91906106ef565b905090565b600061023d610441565b60405163e12f3a6160e01b81523060048201526022602160991b019063e12f3a6190602401602060405180830381865afa15801561027f573d6000803e3d6000fd5b505050506040513d601f19601f820116820180604052508101906102a391906106ef565b9050600081116102fa5760405162461bcd60e51b815260206004820152601760248201527f436c61696d61626c655969656c64206973207a65726f2100000000000000000060448201526064015b60405180910390fd5b604051635569f64b60e11b81526001600160a01b0383166004820152602481018290526022602160991b019063aad3ec96906044016020604051808303816000875af115801561034e573d6000803e3d6000fd5b505050506040513d601f19601f8201168201806040525081019061037291906106ef565b50919050565b610380610441565b6001600160a01b0381166103aa57604051631e4fbdf760e01b8152600060048201526024016102f1565b6103b38161046e565b50565b6103be610441565b6103d06022602160991b0183836104be565b5050565b6040516001600160a01b03848116602483015283811660448301526064820183905261043b9186918216906323b872dd906084015b604051602081830303815290604052915060e01b6020820180516001600160e01b0383818316178352505050506104f4565b50505050565b6000546001600160a01b031633146101c35760405163118cdaa760e01b81523360048201526024016102f1565b600080546001600160a01b038381166001600160a01b0319831681178455604051919092169283917f8be0079c531659141344cd1fd0a4f28419497f9722a3daafe3b4186f6b6457e09190a35050565b6040516001600160a01b038381166024830152604482018390526104ef91859182169063a9059cbb90606401610409565b505050565b60006105096001600160a01b03841683610557565b9050805160001415801561052e57508080602001905181019061052c9190610708565b155b156104ef57604051635274afe760e01b81526001600160a01b03841660048201526024016102f1565b60606105658383600061056c565b9392505050565b6060814710156105915760405163cd78605960e01b81523060048201526024016102f1565b600080856001600160a01b031684866040516105ad919061072a565b60006040518083038185875af1925050503d80600081146105ea576040519150601f19603f3d011682016040523d82523d6000602084013e6105ef565b606091505b50915091506105ff868383610609565b9695505050505050565b60608261061e5761061982610665565b610565565b815115801561063557506001600160a01b0384163b155b1561065e57604051639996b31560e01b81526001600160a01b03851660048201526024016102f1565b5080610565565b8051156106755780518082602001fd5b604051630a12f52160e11b815260040160405180910390fd5b80356001600160a01b03811681146106a557600080fd5b919050565b600080604083850312156106bd57600080fd5b6106c68361068e565b946020939093013593505050565b6000602082840312156106e657600080fd5b6105658261068e565b60006020828403121561070157600080fd5b5051919050565b60006020828403121561071a57600080fd5b8151801515811461056557600080fd5b6000825160005b8181101561074b5760208186018101518583015201610731565b50600092019182525091905056fea2646970667358221220ccef08b8864c6db9bd730f9a74a2587f1ff94af032336f3edb77d1a1380429fc64736f6c63430008140033",
  "linkReferences": {},
  "deployedLinkReferences": {}
}